:100000000C9476040C9493040C9493040C94930431
:100010000C9493040C9493040C9493040C94930404
:100020000C9493040C9493040C94881D0C94C41C9D
:100030000C9445160C9493040C9493040C94930420
:100040000C9493040C9493040C9493040C949304D4
:100050000C9493040C94D3150C9493040C94930473
:100060000C9493040C9493040C9493040C949304B4
:100070000C9493040C9493040C9493040C949304A4
:100080000C9493040C9493040C9493040C94930494
:100090000C9493040C9493040C9493040C94930484
:1000A0000C9493040C9493040C9493044308450813
:1000B0005008470849084B084D084F085208540893
:1000C0005608610858085A085C085E08600863080A
:1000D00005090509430943097F099F09710BCA0BEB
:1000E000E109CA0BCE0ACE0ADB0ADB0ADB0ADB0A0D
:1000F000DB0ADB0ADB0ADB0ADB0ADB0ADB0ADB0AD8
:10010000DB0ADB0ADB0ADB0AEC0A140B190B200BF7
:10011000380B940C970C9A0C9D0CA00CA30CA60CFD
:100120008218851888188B18901897189518D51A62
:10013000FC1A9C1CFC1A9C1C441B671B9C1C651C09
:10014000781C24262426372637262D2637263726C0
:1001500037262426242632263726372632262E0016
:100160002B004C00E100E00000001E001400040021
:100170001D00E3004D001F001A0016001B00E200E6
:100180002A00200008000700060035002C0021008E
:1001900015000900190002514A00220017000A0048
:1001A0000500000029002B0303530000000F00008E
:1001B00001532B01035300000007000046002300F9
:1001C0001C000B00110000003900240018000D0075
:1001D000100001514B0025000C000E0036005000AD
:1001E0002800260012000F00370051002B002700C6
:1001F00013003300380052004E002D00310034420D
:10020000E5004F000000290001000100010001008D
:1002100000003A001E0220022202240201003B00DC
:100220001F0221022302250201003C002F022602A8
:100230002F00360201003D00300227023000370255
:1002400001003E00310235003502000001000100CE
:100250000100000001000000010001000100000099
:100260000100000001003F0001000100010000004A
:1002700001004000240021001E0001000100410097
:10028000250022001F003700010042002600230045
:1002900020002700010043000100550057002E00F8
:1002A000010044004500010056000100000001006B
:1002B0000100010001000100000001000100010037
:1002C00001000100010001000100F2000100010035
:1002D000F5000100F000F10001000100F400010050
:1002E0000100F30001000100010001000100010014
:1002F00001000000010001000100000001000000F9
:1003000001000100010000000100000001000100E7
:10031000010001000100000001000100AA00AC0082
:100320000100010001000100A900AE000100010070
:10033000F9000100A800AB0001000100FA00010073
:1003400001000100010001000100010001000100A5
:100350000100010000000100010001000100010096
:10036000000001003400040033000100010001001E
:10037000360012001400E2000100010037000800FE
:100380000D00010001000100130018000E000551CE
:10039000010001001C000C001B0000000100010016
:1003A00001000000010000000453010001000000F2
:1003B0000100000001000100090007000500000025
:1003C000010001000A000B001000045101000100AF
:1003D000060017001A0001000100010015001100BD
:1003E00019000100010001000F0016001D000100AE
:1003F0000100010038000551010001000000290042
:10040000010001000100010000003A001E0220026C
:100410002202240201003B001F0221022302550098
:1004200001003C002F0226022F00360201003D0091
:10043000300227023000010001003E003102350089
:100440003502000001000100010000000100000071
:1004500001000100010000000100000001003F0058
:100460000100010001000000010040005F005C008D
:10047000590001000100410060005D005A00630066
:100480000100420061005E005B0062000100430069
:100490000100550057002E000100440045000100F6
:1004A00056000100000001000100010001000100F0
:1004B0000000010001000100010001000100010035
:1004C0000100F20001000100F5000100F000F10060
:1004D00001000100F40001000100F300010001002F
:1004E0000100010001000100010000000100010005
:1004F00001000000010000000100010001000000F7
:1005000001000000010001000100010001000000E5
:1005100001000100AA00AC0001000100010001007F
:10052000A900AE0001000100F9000100A800AB0025
:1005300001000100FA0001000100010001000100BA
:1005400001000100010001000100010000000000A5
:100550000000000000000000010101010101010193
:100560000102020202020202020303030303030365
:100570000404040404050505050506060606060729
:10058000070707080808080909090A0A0A0B0B0BDC
:100590000C0C0C0D0D0D0E0E0E0F0F101010111176
:1005A00012121313141415151616171718181919F3
:1005B0001A1A1B1C1C1D1D1E1F1F20212122232354
:1005C00024252526272828292A2B2C2C2D2E2F3090
:1005D000313132333435363738393A3B3C3D3E3FA2
:1005E000404142434445464748494B4C4D4E4F508D
:1005F000525354555758595A5C5D5E606163646547
:1006000067686A6B6C6E6F7172747677797A7C7DCD
:100610007F8182848687898B8D8E9092949597991D
:100620009B9D9FA1A2A4A6A8AAACAEB0B2B4B6B935
:10063000BBBDBFC1C3C5C8CACCCED0D3D5D7DADC09
:10064000DEE1E3E6E8EAEDEFF2F4F7F9FCFFFFAAFA
:100650007F554005010902A10185020901A100059C
:1006600009190129051500250195057501810295D6
:1006700001750381010501093009311581257F9537
:10068000027508810609381581257F950175088155
:1006900006050C0A38021581257F9501750881062B
:1006A000C0C005010980A1018503160100260300D1
:1006B0001A81002A8300751095018100C0050C097C
:1006C00001A1018504160100269C021A01002A9C42
:1006D00002751095018100C005010906A10185057B
:1006E000050719E029E71500250195087501810224
:1006F00005081901290595057501910295017503F4
:1007000091010507190029EF1500250195F07501E4
:100710008102C005010906A101050719E029E715B5
:100720000025019508750181029501750881010573
:100730000819012905950575019102950175039127
:10074000010507190029FF150026FF009506750809
:100750008100C009023B00020100A0FA0904000068
:1007600001030101000921110100012240000705D8
:10077000810308000A0904010001030000000921A7
:100780001101000122C0000705820320000A1201A6
:10079000100100000008EDFE071301000102030133
:1007A00004033000000016034500720067006F006C
:1007B00044006F007800200045005A000000160336
:1007C0004500720067006F0044006F007800200051
:1007D00045005A0000000403090400047F3F1F6421
:1007E0003214643214783C1E1E140A052223252676
:1007F00028292A2C2D2F3032333536383A3B3D3ECE
:100800004042434547494A4C4E5051535557595A17
:100810005C5E6062646668696B6D6F717375777931
:100820007B7D7F81838587898A8C8E909294969830
:100830009A9C9E9FA1A3A5A7A8AAACAEAFB1B3B442
:10084000B6B8B9BBBCBEBFC1C2C3C5C6C7C9CACB97
:10085000CCCDCED0D1D2D2D3D4D5D6D7D7D8D9D962
:10086000DADADBDBDBDCDCDCDCDCDDDDDDDDDCDCCB
:10087000DCDCDCDBDBDBDADAD9D9D8D7D7D6D5D4E8
:10088000D3D2D2D1D0CECDCCCBCAC9C7C6C5C3C2B4
:10089000C1BFBEBCBBB9B8B6B4B3B1AFAEACAAA809
:1008A000A7A5A3A19F9E9C9A98969492908E8C8ABD
:1008B00089878583817F7D7B79777573716F6D6B98
:1008C0006968666462605E5C5A5957555351504E70
:1008D0004C4A4947454342403E3D3B3A3836353322
:1008E00032302F2D2C2A29282625232211241FBE01
:1008F000CFEFDAE0DEBFCDBF11E0A0E0B1E0E8E885
:10090000F8E502C005900D92AE3EB107D9F723E09D
:10091000AEEEB1E001C01D92A037B207E1F70E9430
:10092000581F0C94422C0C9400008F929F92AF920F
:10093000BF92CF92DF92EF92FF920F931F93CF93CC
:10094000DF93CDB7DEB728970FB6F894DEBF0FBEA2
:10095000CDBFFC01F080118183819481892B09F442
:1009600050C71F3F21F40FEFF01609F44AC76F017B
:1009700085E0DE01119601900D928A95E1F7F6016E
:10098000228189819A81222349F00E947A17082FB7
:10099000682F89819A810E94F31703C00E94C617AD
:1009A000082F26E0129FF001112434E5039FE00D8B
:1009B000F11D1124EF0DF11DEE0FFF1FE25AFE4F46
:1009C00005911491F6018281053FFCE51F0791F026
:1009D000063F2CE5120731F0043F3CE5130709F010
:1009E00069C004C0882309F40CC733C0882309F404
:1009F00008C74BC0882309F404C790914F0281E0D7
:100A0000892780934F02FDC61092EF01F601928173
:100A10000A3CFCE51F0709F46AC208F430C1013D35
:100A20002CE5120709F4D5C240F1053DECE51E079F
:100A300009F4F5C208F474C10D3D8CE5180709F4FA
:100A4000F9C20E3DECE51E0709F072C1992309F4C5
:100A5000D8C628960FB6F894DEBF0FBECDBFDF9183
:100A6000CF911F910F91FF90EF90DF90CF90BF90AB
:100A7000AF909F908F900C94DC160D3C8CE518077E
:100A800009F038C1992309F4BCC681E028960FB655
:100A9000F894DEBF0FBECDBFDF91CF911F910F91B4
:100AA000FF90EF90DF90CF90BF90AF909F908F908E
:100AB0000C94D912882319F1033E8CE51807C1F074
:100AC00050F4013EECE51E0781F0023EFCE51F07F5
:100AD000B1F481E010C0043E2CE5120759F0053E48
:100AE0003CE5130761F484E006C01092CA0205C019
:100AF00082E001C083E08093CA020E94440F17FF86
:100B000073C0F6018281882309F46EC08091990236
:100B10008093EE01109299028091CA02813071F0A7
:100B200048F08230D1F08430F1F486EE0E94AF2894
:100B300088E117C082EE0E94C22815C087E49CE0BD
:100B40000E94AD1988E10E94C22888E10E944828CD
:100B500087E39CE00E94AD1906C082EE0E94C22885
:100B600087E50E94AF288FE39CE90197F1F700C069
:100B700000007801E894F7F85CE0A52EB12CC701DD
:100B80000A2C02C0969587950A94E2F7282F2F70B9
:100B900041F0822F90E02A3010F44D9604C0069761
:100BA00002C087E290E00E94AF2894E0A91AB10841
:100BB000ECEFAE16EFEFBE0611F78091CA0281305E
:100BC00039F040F0823031F0843051F488E206C0D0
:100BD0008CE204C082EE0E94482802C00E94AF2826
:100BE0008091EE0180939902003FFCE51F07C1F15F
:100BF00088F4083D3CE51307D9F0093D8CE518075A
:100C0000D9F1073D9CE5190709F0FECE26E241EE39
:100C100061EE11C0023FECE51E0751F128F1033FE0
:100C20002CE5120709F0F0CE27E246EE66EE03C08F
:100C300027E245EE65EEC60128960FB6F894DEBFB2
:100C40000FBECDBFDF91CF911F910F91FF90EF901D
:100C5000DF90CF90BF90AF909F908F900C944C25D9
:100C600026E240EE60EEE7CF27E244EE64EEE3CF0B
:100C700026E242EE62EEDFCF28E241E0DBCF033C2A
:100C80003CE5130709F4C4C0E8F40531ECE51E07A0
:100C900078F40230FCE51F0708F0D3C101152CE5FC
:100CA000120709F44AC001301C4509F488C064C227
:100CB00006318CE5180709F42BC2023C1C4509F4E7
:100CC00087C05AC2063CFCE51F0709F4E3C050F494
:100CD000043C3CE5130709F4B6C0053C1C4509F487
:100CE000CDC04AC2083CECE51E0709F4E9C008F48F
:100CF000DDC0F3C00E3CECE51E0750F40B3CFCE5F8
:100D00001F0709F416C10C3C1C4509F41BC134C271
:100D10000F3C3CE5130709F446C108F439C14EC144
:100D2000033D2CE5120709F46AC108F45DC16CC1EA
:100D30000C3D1C4509F020C277C1992309F461C517
:100D4000109299020E9420280FEF14E32CE001502A
:100D500010402040E1F700C00000F89481E080934B
:100D6000E00080E28093D8001092C9008FE19EE4F9
:100D70000197F1F700C000001DBA109268001CBC7A
:100D800010BE1FBA10927A0010926E0010926F007F
:100D900010927100109272001092C9001092BC0063
:100DA00014B817B81AB81DB810BA1092BC0015B80C
:100DB00018B81BB81EB811BA0C94003F22C599236D
:100DC00009F41FC58091FA0281608093FA0219C567
:100DD000992309F416C580910F0380FF14C028964B
:100DE0000FB6F894DEBF0FBECDBFDF91CF911F913C
:100DF0000F91FF90EF90DF90CF90BF90AF909F90BA
:100E00008F900C94C60D816080930F0386953ECE23
:100E1000992309F4F6C4809199028272D9F0289638
:100E20000FB6F894DEBF0FBECDBFDF91CF911F91FB
:100E30000F91FF90EF90DF90CF90BF90AF909F9079
:100E40008F900C94DC12992309F4DBC480919902F1
:100E5000827229F328960FB6F894DEBF0FBECDBF7D
:100E6000DF91CF911F910F91FF90EF90DF90CF9086
:100E7000BF90AF909F908F900C94E512992309F446
:100E8000C0C48091100321E04091120360911103CE
:100E9000845F3BC0992309F4B4C48091100321E01E
:100EA00040911203609111038C502FC0992309F4D3
:100EB000A8C4609111032FEF620F08F46FEF09C00F
:100EC000992309F49EC4609111032FEF621B08F46B
:100ED00060E021E04091120316C0992309F491C407
:100EE000409112032CE0420F08F44FEF09C0992300
:100EF00009F487C4409112032CE0421B08F440E03F
:100F000021E0609111038091100328960FB6F894A8
:100F1000DEBF0FBECDBFDF91CF911F910F91FF902C
:100F2000EF90DF90CF90BF90AF909F908F900C94F8
:100F3000A80E992309F465C480911303833060F4EB
:100F40008F5F08C0992309F45CC480911303882340
:100F500019F081508093130360910F037091100377
:100F6000809111039091120328960FB6F894DEBF7A
:100F70000FBECDBFDF91CF911F910F91FF90EF90EA
:100F8000DF90CF90BF90AF909F908F900C94AA0D60
:100F9000992309F436C40E948F0D8250833008F4DF
:100FA00059CF82E073CD992309F42BC40E948F0D91
:100FB0008650823008F44ECF86E068CD992309F43C
:100FC00020C40E948F0D8950853008F443CF89E0FA
:100FD0005DCD992309F415C40E948F0D8F50853083
:100FE00008F438CF8FE052CD992309F40AC40E9447
:100FF0008F0D8551823008F42DCF85E147CD99239F
:1010000009F4FFC388E142CD992309F4FAC30E9491
:101010008F0D8951893008F41DCF89E137CD99238F
:1010200009F4EFC383E232CD992309F4EAC31092A5
:101030001603E7C3992309F4E4C382E080931603FF
:10104000E0C3992309F498C00E94D116811102C00F
:101050000E94DC1684E090E00E94922A90E0909337
:10106000DD028093DC02F801E350FC45E231F1053A
:1010700030F4EA5AFF4F8091DC020C94022B8091ED
:10108000DC02816027C0826025C0846023C080614B
:1010900021C080621FC080641DC080681BC0846046
:1010A000886018C08E7F16C08D7F14C08B7F12C0E1
:1010B0008F7E10C08F7D0EC08F7B0CC08F770AC0D3
:1010C0008B7F877F07C087FB222720F991E092273B
:1010D00090FB87F98093DC026091DC0284E090E071
:1010E0000E94A62A1092990228960FB6F894DEBFA5
:1010F0000FBECDBFDF91CF911F910F91FF90EF9069
:10110000DF90CF90BF90AF909F908F900C9420284D
:1011100080919902992389F0982F9A7A81E009F4B5
:1011200080E08093F001811102C069E201C065E3B3
:1011300087EF91E00E9499160BC08091F001811118
:1011400002C069E201C065E387EF91E00E946E167C
:1011500028960FB6F894DEBF0FBECDBFDF91CF91BA
:101160001F910F91FF90EF90DF90CF90BF90AF90C5
:101170009F908F900C943417F60100811181992370
:1011800049F0C8010E947A17F82E682FC8010E9402
:10119000F31704C0C8010E94C617F82EB8018F2D9E
:1011A0000E944A0F182F382FF601258122952F70A3
:1011B0000281011110928D0280918B028770A9F03B
:1011C000002399F080E2810F883078F082E02F834D
:1011D00038879E830E945F1980918B028770EE246E
:1011E000E3942F8138859E818111E12CA92EA29450
:1011F0004FE0A422B12CFCE0AF16B10408F0CAC243
:10120000F501E859FF4F0C94022B892F807F9F70C6
:10121000F92E882319F0F29480EFF8220023B9F018
:10122000FF2009F448C280E2810F883010F03111AC
:1012300006C090919902F92AF092990205C0909106
:101240008D02F92AF0928D020E94341734C2812F48
:1012500038870E9448283885FF2009F49BC2105E19
:10126000F094183010F0311106C090919902F922D3
:10127000F092990205C090918D02F922F0928D02B0
:101280000E94341787C2492F407F892F8F704032C8
:1012900011F08295807F332319F03130E9F025C0B9
:1012A000002381F030918E02222351F0213041F44D
:1012B000982F932B391709F46DC290938E026AC24E
:1012C000832B81C1222319F0213009F463C28E835C
:1012D0000E942E178E817DC1002321F0223008F05C
:1012E00059C271C1211156C274C1002321F02223B9
:1012F00009F469C1E0C1222309F46BC1EEC1292FB1
:1013000026952695237030E02115310521F02130F6
:10131000310559F03FC2002319F0812F937002C0AC
:1013200080E090E00E94102543C2002319F0812F35
:10133000937002C080E090E00E94FA2439C200233A
:10134000F9F0153F51F0163F71F0143FA9F4809168
:10135000F1019091F20181600BC08091F1019091B7
:10136000F201826005C08091F1019091F2018460E8
:101370009093F2018093F101812F0E946B151EC0A2
:10138000153F51F0163F71F0143FA9F48091F1011F
:101390009091F2018E7F0BC08091F1019091F2014A
:1013A0008D7F05C08091F1019091F2018B7F909328
:1013B000F2018093F101812F0E94A1140E942F1647
:1013C000F7C1892F837009F071C00111EFC1812F1E
:1013D000829586958770880F880F412F4F7050E057
:1013E00060E070E04A015B01082E04C0880C991C83
:1013F000AA1CBB1C0A94D2F714FF12C00FE010E025
:1014000020E030E004C0000F111F221F331F8A9517
:10141000D2F7B901A801409550956095709503C029
:1014200040E050E0BA01969596959370892F90E030
:1014300082309105E9F08330910579F100918F02B6
:10144000109190022091910230919202019759F0EF
:10145000482959296A297B29CB01BA0160237123C4
:101460008223932320C0802A912AA22AB32A15C05E
:10147000482959296A297B2980918F0290919002ED
:10148000A0919102B09192028A019B01082719272D
:101490002A273B27C901B80106C0CB01BA01682938
:1014A00079298A299B290E94991980C1002319F062
:1014B000892F817001C08695882309F477C1812F17
:1014C000829586958770880F880F412F4F7050E066
:1014D00060E070E04A015B01082E04C0880C991C92
:1014E000AA1CBB1C0A94D2F714FF12C00FE010E034
:1014F00020E030E004C0000F111F221F331F8A9527
:10150000D2F7B901A801409550956095709503C038
:1015100040E050E0BA01969596959370892F90E03F
:1015200082309105E9F08330910579F100918702CD
:10153000109188022091890230918A02019759F016
:10154000482959296A297B29CB01BA0160237123D3
:101550008223932320C0802A912AA22AB32A15C06D
:10156000482959296A297B2980918702909188020C
:10157000A0918902B0918A028A019B01082719274C
:101580002A273B27C901B80106C0CB01BA01682947
:1015900079298A299B290E94231808C1412F50E0EC
:1015A000FA01E05EF109E531F10508F07FC0EC5881
:1015B000FF4F0C94022B1F70892F8F71002331F085
:1015C0000E947819812F0E943E28E4C00E943A1997
:1015D000812F0E943328DEC0002311F12111DAC0CF
:1015E000292F2F7181E090E0A0E0B0E0AC01BD01B7
:1015F00004C0440F551F661F771F2A95D2F78091AC
:10160000870290918802A0918902B0918A028A0192
:101610009B01082719272A273B27C901B80125C0A4
:10162000223008F0B7C0DCCF002329F0892F8F715A
:101630002EC00023D9F3892F8F710E943A19AAC0B6
:10164000002381F0292F2F7181E090E0A0E0B0E02D
:10165000BC01CD0104C0660F771F881F991F2A9512
:10166000D2F703C060E070E0CB010E94231892C063
:10167000002381F0192F1F71812F0E94781928E013
:10168000129FC0011124836080938B02812F0E94DE
:10169000781980C081E02F830E945F192F8122304A
:1016A00008F478C082E00E945F1974C0002339F00A
:1016B000222309F4BBCF812F0E94C2286BC02223B2
:1016C00009F4B9CF193349F43FEF83EC99E0315075
:1016D00080409040E1F700C00000812F0E94482820
:1016E00059C0323FB1F028F4303F49F0313FF9F0B2
:1016F00028C0343FB9F058F0353F71F022C00023C4
:1017000009F456C090916B0381E0892708C081E0FD
:10171000082700936B034CC001114AC081E08093FD
:101720006B0346C0011144C010926B0341C00023FB
:1017300029F080916A03882329F329C0222311F319
:1017400037C080916A032223C1F0882341F0909131
:101750006B0381E0892780936B0310926A03812FCA
:10176000002319F00E94C22823C00E94482886E066
:10177000F60111928A95E9F71BC08823C9F001117F
:1017800017C090916B0381E0892780936B031092BF
:101790006A030EC0F8E0AF16B10441F04CF01AE055
:1017A000A11AB10822E0A216B10410F40E94262565
:1017B000EE2039F180918B0280FD23C0F601128268
:1017C0008595859585950E947819C6010E94950496
:1017D00080918B0285958595859528960FB6F8940E
:1017E000DEBF0FBECDBFDF91CF911F910F91FF9054
:1017F000EF90DF90CF90BF90AF909F908F900C9420
:101800003A1928960FB6F894DEBF0FBECDBFDF9110
:10181000CF911F910F91FF90EF90DF90CF90BF90ED
:10182000AF909F908F9008959091DC0292FF0DC031
:10183000282F2871283019F4877F846006C0282F4C
:101840002471243011F48B7F886093FF0DC0282F02
:101850002871283119F4877E846106C0282F2471ED
:10186000243111F48B7E886194FD877E0895282FA2
:10187000277081E090E001C0880F2A95EAF78095F3
:1018800090918D02892380938D020C943417282F18
:10189000277081E090E001C0880F2A95EAF79091C7
:1018A0008D02892B80938D020C943417CF93E82FEF
:1018B000873080F58091120190911301892B09F0F6
:1018C00047C0CE2F64E670E080E40E94E229909346
:1018D000130180931201892BD1F464E670E082E158
:1018E0000E94392A9093130180931201892B79F475
:1018F00081E090E001C0880FCA95EAF764E670E0E5
:1019000080950E94392A9093130180931201CF9100
:101910000C948E2A90E0FC013797E730F105C0F473
:10192000E757FF4F0C94022B209A289811C0219A58
:1019300029980EC0229A2A980BC0239A2B9808C087
:10194000529A5A9805C0539A5B9802C03E9A46989C
:10195000CF910895CF93873008F03FC08091120156
:1019600090911301892B09F041C064E670E080E496
:101970000E94E2299093130180931201892B11F0A8
:10198000C0E027C064E670E083E10E94392A9093AA
:10199000130180931201892B99F764E670E081E4CA
:1019A0000E94E2299093130180931201892B41F741
:1019B00084E690E00E94692A97FF05C09093130186
:1019C00080931201DDCFC82FC095109213011092A1
:1019D00012010E948E2A8C2F0AC09FB18FB1807F86
:1019E000869586959370892B809501C080E0CF9174
:1019F0000895EF92FF920F931F93CF93DF938091FF
:101A00000F0380FF2EC0EFB6F090BC00F8948091D9
:101A1000BC008B7F8093BC008BB18C7F8BB95098BE
:101A2000589A5198599A35E03A95F1F700008AB1E1
:101A30008C7F8AB985E08A95F1F70000519A599810
:101A4000E5E0EA95F1F70000509A5898F5E0FA952C
:101A5000F1F7000084E80E943225CAE1D3E08E014C
:101A60000DC080E090E0FC01E65EFC4F1182108228
:101A7000128204968C339105B1F7C5CFF3E0063599
:101A80001F0731F0F80181918F010E943225F6CFB6
:101A90005098589A35E03A95F1F700005198599AC4
:101AA00085E08A95F1F70000EFBEF092BC00579AEE
:101AB0008BB18F779BB190682FB7F894E3E0C63570
:101AC000DE0789F0399148E09BB9000000C037FF7C
:101AD0008BB9330F000000C000C000C08BB900C03C
:101AE0004A9591F7EBCF2FBFDF91CF911F910F91C7
:101AF000FF90EF90089590910F0390FF0FC020E0AA
:101B000030E0F901E65EFC4F8183608342832C5F05
:101B10003F4F2C333105A9F70C94F90C08958091AF
:101B20000F0380FF02C08695089580E0089580919C
:101B30000F03282F269530E02115310519F4817007
:101B4000826005C02532310524F08170886480935D
:101B50000F030895CF93DF9300D000D0CDB7DEB749
:101B6000AB01BC0149835A836B837C830E94970D30
:101B700049815A816B817C8188E090E00F900F90C1
:101B80000F900F90DF91CF910C94B82AEFE0F3E023
:101B900080818E7F808360817181828193810E94A8
:101BA000AA0D109215032FEF80E792E0215080409C
:101BB0009040E1F700C000000C94F90CEFE0F3E076
:101BC00083E0808311828FEF82838383148260811C
:101BD0007181828193810C94AA0DAF92BF92CF92B2
:101BE000DF92EF92FF920F931F93CF93DF93D82E44
:101BF000C62EE901E42FF0E0611106C0E25BFA4F66
:101C00004491E42F842F7BC0E62EF12C26E0829FA6
:101C1000C00111240FEF10E0B8010E94DA2A5BEA3C
:101C200056039001579F300D11242D0D311D2D0DA0
:101C3000311D822F880F280FC8018E199F098E9F92
:101C4000D0018F9FB00D9E9FB00D11249B2F2C9D16
:101C500060011124CD2CDD245801AC18BD08AE9EC6
:101C60006001AF9ED00CBE9ED00C11245801A21A68
:101C7000B108AE9C9001AF9C300DBE9C300D11247C
:101C8000232F3327021B130B0E9F90010F9F300D44
:101C90001E9F300D1124832F6230710591F04CF49A
:101CA00061157105E9F061307105C1F4842F4D2D86
:101CB00017C06430710571F044F06630710581F031
:101CC0000DC0842F4B2F932F0BC0E42F4B2F9E2F33
:101CD0008D2D06C08B2F942F432F02C08B2F9D2D4F
:101CE000E42FF0E0E25BFA4F4491E82FF0E0E25B92
:101CF000FA4F8491E92FF0E0E25BFA4FE4914983D7
:101D00008883EA83DF91CF911F910F91FF90EF902D
:101D1000DF90CF90BF90AF900895CF93DF9300D026
:101D200000D0CDB7DEB790910F0390FF0AC09E019F
:101D30002F5F3F4F0E94ED0D4B8169818A810E9488
:101D40007B0D0F900F900F900F90DF91CF91089522
:101D50005F926F927F928F929F92AF92BF92CF923B
:101D6000DF92EF92FF920F931F93CF93DF9300D0F8
:101D700000D0CDB7DEB7182F762E042F622E9091AB
:101D80000F0390FF6DC0E92FE695AE2FB0E0A05E87
:101D9000BE4F8C91809314039E7F923061F49E011C
:101DA0002F5F3F4F812F0E94ED0D4B8169818A810A
:101DB0000E947B0D43C0823019F4009112033EC093
:101DC000863019F41091100339C08930D9F3893164
:101DD000A9F5E9518E2F8170582EE695F0E0E25B6F
:101DE000F94FA590B4908AE1C82E83E0D82EE12C5B
:101DF000F12CBB249FE0892E912CEA9CC001EB9C26
:101E0000900DFA9C900D1124B4010E94DA2A812FC2
:101E1000511002C0860F01C0861B9601402F672D0E
:101E20000E94ED0D8FEFE81AF80A84E0C80ED11C6D
:101E30008FE0E816F10409F70E94F90C10931003E3
:101E40007092110300931203662051F060910F030A
:101E50007091100380911103909112030E94AA0DBA
:101E60000F900F900F900F90DF91CF911F910F91D6
:101E7000FF90EF90DF90CF90BF90AF909F908F90AA
:101E80007F906F905F9008956091CA028CE090E01F
:101E90000C94A62ACF93DF9326E0729FF0011124C1
:101EA00034E5839FE00DF11D1124E60FF11DEE0FC7
:101EB000FF1FE25AFE4FC591D491CE01C238D10521
:101EC00049F1B0F4C133D10509F464C048F4C93212
:101ED000D10509F458C0CA32D10509F462C068C0FE
:101EE000C533D10509F448C0C933D10599F060C0A4
:101EF000C33ED10541F138F4C03ED10591F0C23E58
:101F0000D105B1F055C0C63ED10521F1C73ED1057E
:101F100061F14EC02091DC0220FD14C221FD12C2ED
:101F200013C22091DC0220FF0FC289E390E00CC2B3
:101F30002091DC0222FF08C28091DC0284FDB4C142
:101F400083EE90E001C28091DC0282FFF5CF82EE49
:101F500090E0FAC12091DC0223FFF6C18091DC02FF
:101F600084FDA2C187EE90E0EFC18091DC0283FF87
:101F7000F5CF86EE90E0E8C12091DC0225FFE4C1B8
:101F800089E290E0E1C12091DC0225FFDDC185E31B
:101F900090E0DAC12091DC0226FFD6C18AE290E00F
:101FA000D3C12091DC0226FFCFC181E390E0CCC1F8
:101FB000C11520E5D20708F047C0C11530E4D307AA
:101FC00008F034C1C83ED10518F5C03ED10508F06F
:101FD000BBC1C83AD10570F4C53AD10508F0B0C00C
:101FE000C130D10509F4B0C108F45EC1249708F4EA
:101FF0005BC1AAC1CF3BD10508F4ADC0C03CD1053F
:1020000008F452C1FE01EE0FFF1FE253FC4F02C164
:10201000C11520E2D20760F4C11531E0D30708F002
:1020200093C1C03FD10508F43FC1CE0190658CC17A
:10203000C11580E3D80708F0F0C0FE01FF70EE0F75
:10204000FF1FE25BFA4FE6C0C11595E5D90708F01E
:1020500044C0C11524E5D20708F000C1C11532E51E
:10206000D30710F5C11581E5D80708F0E3C02C2F80
:10207000237081E090E002C0880F991F2A95E2F753
:102080009C689E0174E0369527957A95E1F7237058
:10209000922BEC2FEF70E695E69530E2E39FF0018E
:1020A00011248E2B9F2B50C18C2F86958695AE01C7
:1020B00043705527C115D34508F0C1C090E2899FF0
:1020C0009001112481E090E002C0880F991F4A9589
:1020D000E2F7822B932B9C6837C1C1152AE5D20702
:1020E000A0F4C11539E5D30708F0C6C0C11586E5CF
:1020F000D80708F4B8C0C11598E5D90708F4D4C0CA
:102100009C2F8827806F906A1FC1C1152BE5D207CD
:1021100008F4CAC0CE01C1153CE5D30708F4C1C01C
:1021200090568115904208F0BFC08D2F8F710E948C
:10213000140CFE01FF27F0628F719F01382BAFC096
:10214000C53AD10509F4B3C0C63AD10509F0B2C009
:1021500082E890E4F9C0C83AD10509F4AEC0C93AA2
:10216000D10509F4ADC0CA3AD10509F4ACC0CB3AE7
:10217000D10509F4ABC0CC3AD10509F4AAC0CB3BD8
:10218000D10509F4A9C0CC3BD10509F4A8C0CD3ACA
:10219000D10509F4A7C0C03BD10509F4A6C0CE3AC9
:1021A000D10509F4A5C0CF3AD10509F4A4C0C13BBB
:1021B000D10509F4A3C0C23BD10509F4A2C0C33BB9
:1021C000D10509F4A1C0C43BD10509F4A0C0C53BA9
:1021D000D10509F49FC0C63BD10509F49EC0C73B99
:1021E000D10509F49DC0C83BD10509F49CC0C93B89
:1021F000D10509F49BC0CD3BD10509F49AC0CE3B73
:10220000D10509F499C0CA3BD10509F498C080E012
:1022100094E49AC08591949197C09E013327C90197
:10222000D3FF02C0986C90C0906C8EC0CE019F709E
:10223000906A8AC09C2F8827816F906A85C090E23F
:10224000899F9001112481E090E002C0880F991FBE
:102250004A95E2F7822B932B9A6876C09C2F8827A9
:10226000846F906A71C08C2F0E94140C8F7190E063
:10227000982F8827906268C08C2F8F700E94140C52
:10228000FE0194E0F695E7959A95E1F7EF70F0E09E
:10229000FE2FEE27F06A8F70806E9F01282BC901F8
:1022A00053C09927906650C080E090E04DC081E80F
:1022B00090E44AC083E890E447C082EE94E444C0CE
:1022C00089EE94E441C08AEE94E43EC085EB94E448
:1022D0003BC086EB94E438C083EB94E435C084EBD8
:1022E00094E432C087EB94E42FC08CEC94E42CC0CF
:1022F0008DEC94E429C083E895E426C08AE895E44F
:1023000023C082E995E420C084E995E41DC081E200
:1023100096E41AC083E296E417C084E296E414C0FF
:1023200085E296E411C086E296E40EC087E296E468
:102330000BC08FE694E408C080E794E405C08AE20D
:1023400096E402C080EE90E0DF91CF91089580E2A4
:1023500090E090931301809312018091F601811116
:102360000EC00E94DC2981E08093F6012FEF83EDFF
:1023700090E3215080409040E1F700C0000064E607
:1023800070E080E40E94E22990931301809312018F
:10239000892B09F04EC064E670E080E00E94392A83
:1023A0009093130180931201892B09F042C064E6D7
:1023B00070E080E00E94392A90931301809312010B
:1023C000892BB9F564E670E08FE30E94392A909377
:1023D000130180931201892B61F50E948E2A64E615
:1023E00070E080E40E94E22990931301809312012F
:1023F000892BF9F464E670E08CE00E94392A90930E
:10240000130180931201892BA1F464E670E080E04F
:102410000E94392A9093130180931201892B49F469
:1024200064E670E08FE30E94392A90931301809351
:1024300012010E948E2A80911201089556985E988A
:1024400025982D9826982E9827982F988FEF90E012
:10245000909389008093880090938B0080938A00EA
:1024600090938D0080938C00259A2D9A2FEF80E712
:1024700092E0215080409040E1F700C00000269A91
:102480002E9A2FEF80E792E0215080409040E1F7B4
:1024900000C00000279A2F9A2FEF80E792E021508A
:1024A00080409040E1F700C0000025982D982FEF64
:1024B00080E792E0215080409040E1F700C00000AA
:1024C00026982E982FEF80E792E021508040904090
:1024D000E1F700C0000027982F9856985E9825983D
:1024E0002D9826982E9827982F98089584B1807F4C
:1024F00084B985B1807F85B98AB1837F8AB98BB170
:10250000837F8BB93E984698089580B38C7080BBCA
:1025100081B3836F81BB089590910F0390FF3DC0FD
:102520009170811102C0926006C0853210F09864EB
:1025300002C0880F982B90930F03662351F060918F
:102540000F037091100380911103909112030E9468
:10255000AA0D60910F03669570E04BE050E086E0B5
:1025600091E00E94352C892B19F01092150309C0B7
:1025700081E0809315030E94231690930A038093B1
:10258000090381E080930C0320E0409112036091E5
:102590001103809110030C94A80E089560E00C9430
:1025A0008C12EFE0F3E080818160808386950C944B
:1025B000CE1261E00C948C1280910F0386958150AD
:1025C00009F484E261E00C948C1280910F038695EB
:1025D0008F5F853208F081E061E00C948C129F924D
:1025E000AF92BF92CF92DF92EF92FF920F931F9321
:1025F000CF93DF938091120190911301892B91F079
:102600008091F5018F5F8093F50181110BC00E94CD
:10261000A71190E09093130180931201892B11F47C
:102620000E941E120EEC12E025EDE22E22E0F22EA8
:102630006801C0E0912C97E0A92EAC0E8C2F0E946F
:10264000560C8A2D0E94560C8C2F0E94AA0CF60163
:102650009081981721F08083BB24B39401C0B12CE2
:102660008A2D0E94AA0CF7019081981719F0808397
:1026700081E001C080E0B82A9B280E947612CF5FDB
:10268000FFEFCF1ADF0A8FEFE81AF80AC73099F682
:102690000E9423166AEF70E00E94DA2A9C01682FDC
:1026A0008091F4018823E9F11092F401E091C802CD
:1026B000F091C902DF011E9690E07BEF8AEFE82ED1
:1026C000F12C80818B3FA9F0482F50E0681728F04B
:1026D000E901C41BD50BAE0106C06701C41AD50AB7
:1026E000A601420F531F4F30510514F0708301C0F3
:1026F00091E03196EA17FB0721F79093F4019110CE
:1027000002C0911110C01092F301A091C802B091C3
:10271000C9029091F401E2EEF2E080E03EE03E0F6B
:1027200007C09110F0CF8091F3018111ECCF16C05A
:10273000E80129918E014081421741F04C914B3FB5
:1027400021F46C93208391E001C081E011963196D1
:102750003E13EECF9093F4018093F301892DDF9126
:10276000CF911F910F91FF90EF90DF90CF90BF908E
:10277000AF909F90089580919B020895CF93DF932F
:1027800000D01F92CDB7DEB72091BE02243031F5C4
:1027900023E02983805891099B838A8382E0809378
:1027A000E9008FEF9091E800815095FD06C095ED0E
:1027B0009A95F1F700008111F5CF8091E80085FF2F
:1027C0000DC040E050E063E070E0CE0101960E9451
:1027D000B8198091E8008E778093E8000F900F90F1
:1027E0000F90DF91CF9108950F931F93CF93DF93B5
:1027F00000D01F92CDB7DEB78C010E944C1F8230F3
:1028000011F0843021F584E089831B830A8382E000
:102810008093E9008FEF9091E800815095FD06C00C
:1028200095ED9A95F1F700008111F5CF8091E800C0
:1028300085FF0DC040E050E063E070E0CE010196FE
:102840000E94B8198091E8008E778093E8000F907D
:102850000F900F90DF91CF911F910F910895CF931B
:10286000DF93EC010E944C1F823011F08430F9F4A8
:1028700082E08093E9009FEF8091E800915085FD10
:1028800006C085ED8A95F1F700009111F5CF809192
:10289000E80085FF0CC040E050E066E070E0CE014B
:1028A0000E94B8198091E8008E778093E800DF914C
:1028B000CF910895CF93DF93EC010E944C1F82309B
:1028C00011F08430D9F580911101882339F080917D
:1028D000DC0287FF03C060E282E002C068E081E0C2
:1028E0008093E9008FEF9091E800815095FD06C03C
:1028F00095ED9A95F1F700008111F5CF8091E800F0
:1029000085FF1CC080911101811105C040E050E09D
:1029100068E070E003C070E040E050E0CE010E944B
:10292000B8198091E8008E778093E80080E2FE017C
:10293000ACE9B2E001900D928A95E1F7DF91CF9179
:102940000895803F39F48091F30287FF6CC01092A4
:10295000F30269C0813F29F48091F3021816BCF399
:1029600062C09091F202823F29F497FF5CC01092FE
:10297000F20259C0833F19F41916CCF354C0893FB1
:1029800041F48091F40218160CF04DC01092F4023C
:102990004AC08A3F29F48091F40287FF44C0F6CFF1
:1029A0008B3F39F48091F50287FF3DC01092F5020C
:1029B0003AC08C3F29F48091F5021816BCF333C05D
:1029C000843F21F48091F1028E7F17C0853F21F46E
:1029D0008091F1028D7F11C0863F21F48091F10238
:1029E0008B7F0BC0873F21F48091F102877F05C068
:1029F000883F31F48091F1028F7E8093F10213C001
:102A00008D3F21F4809197028E7F0BC08E3F21F481
:102A1000809197028D7F05C08F3F29F480919702A6
:102A20008B7F809397028091F20281110EC080917A
:102A3000F30281110AC08091F402811106C08091D5
:102A4000F502811102C01092F6020895809197025A
:102A500080FD16C081FD16C082FD18C08091F6026F
:102A6000882391F0883290F428E0829FC0011124DD
:102A700068E270E00E94EE2A862F672B29F007C0DB
:102A800082E0089584E0089581E0089588E0089543
:102A90008091970280FD17C081FD17C082FD19C08B
:102AA0008091F602882399F08C3398F423E2829F78
:102AB000C00111246CE370E00E94EE2A862F672B80
:102AC00049F481E0089588E0089581E1089585E062
:102AD000089583E20895803F21F40E94481581956E
:102AE00004C0813F29F40E9448158093F3020895A1
:102AF000823F21F40E944815819504C0833F29F448
:102B00000E9448158093F2020895893F19F40E94AB
:102B1000261505C08A3F31F40E94261581958093C1
:102B2000F40208958B3F21F40E942615819504C07C
:102B30008C3F29F40E9426158093F5020895843F66
:102B400021F48091F102816017C0853F21F48091CA
:102B5000F102826011C0863F21F48091F10284600D
:102B60000BC0873F21F48091F102886005C0883F47
:102B700031F48091F10280618093F10208958D3FDC
:102B800021F48091970281600BC08E3F21F48091E7
:102B90009702826005C08F3F29F48091970284607C
:102BA00080939702089578941F920F920FB60F9218
:102BB00011248F939F93AF93BF9380919302909131
:102BC0009402A0919502B09196020196A11DB11DAB
:102BD0008093930290939402A0939502B0939602EF
:102BE000BF91AF919F918F910F900FBE0F901F904B
:102BF0001895CF92DF92EF92FF920F931F932FB70A
:102C0000F8944091930250919402609195027091D2
:102C100096022FBF6A017B01EE24FF248C0120E085
:102C200030E0C016D106E206F30610F44150510917
:102C30009A01281B390BC9011F910F91FF90EF904A
:102C4000DF90CF9008952FB7F894809193029091E0
:102C50009402A0919502B09196022FBF0895E09141
:102C6000DF02F091E002309749F082E08093F002B9
:102C70000480F581E02D80EF92E009950E942316F3
:102C80009093F8028093F70208951F920F920FB667
:102C90000F9211248F939F93AF93BF938091E10282
:102CA000811113C08091930290919402A09195029A
:102CB000B09196024196A11DB11D8093930290930D
:102CC0009402A0939502B0939602BF91AF919F9109
:102CD0008F910F900FBE0F901F90189520911101AA
:102CE000222321F02091DC0227FD04C0FC01329652
:102CF000089619C0262F2695269526952E31C0F4C4
:102D0000FC01E20FF11D677081E090E001C0880FC7
:102D10006A95EAF780959281892382830895319696
:102D2000E817F90729F020812613F9CF1082F7CF91
:102D3000089520911101222321F02091DC0227FD2A
:102D400005C0FC0132962FEF30E019C0262F2695E2
:102D5000269526952E3120F5FC01E20FF11D6770B6
:102D600081E090E001C0880F6A95EAF79281892B93
:102D7000828308952F3F39F03F5F363041F0419113
:102D80004613F8CF0DC04111F7CF232FF5CF2F3FBA
:102D900039F0FC01E20FF11D27FDFA9562830895D9
:102DA000089580E090E00E94A02A21E08D3E9E4F91
:102DB00009F020E0822F08956DEE7EEF80E090E034
:102DC0000E94C42A60E082E090E00E94A62A60E0AF
:102DD00083E090E00E94A62A10928F021092900247
:102DE000109291021092920260E084E090E00E94C2
:102DF000A62A60E085E090E00E94A62A60E086E0D6
:102E000090E00E94A62A6FEF87E090E00E94A62A39
:102E100040E050E0BA0188E090E00E94B82A60E00B
:102E20008DE090E00E94A62A40E050E0BA0188E1DF
:102E300090E00E94B82A60E087E190E00E94A62A14
:102E400040E050E0BA018FE090E00E94B82A40E0F4
:102E500050E0BA0183E190E00C94B82A80918E0290
:102E6000811110928E02089590918D0280919902A5
:102E7000892B20918C02982F922B9093F7018091AF
:102E80008E028823D9F0892B8093F701809111015C
:102E9000882331F08091DC0287FF02C08EE101C0FF
:102EA00086E0E9EFF1E090E0815028F021912223C3
:102EB000D9F39F5FF9CF91110E942E17E091DF02A5
:102EC000F091E0023097A9F080911101882359F028
:102ED0008091DC0287FF07C08091F7018093F801A1
:102EE00085E08093F7010280F381E02D87EF91E088
:102EF00009940895BF92CF92DF92EF92FF920F93C1
:102F00001F93CF93DF938C01C0908F02D0909002DB
:102F1000E0909102F0909202809187029091880255
:102F2000A0918902B0918A02C82AD92AEA2AFB2AEA
:102F3000CFE1D0E0D701C6010C2E04C0B695A7950D
:102F4000979587950A94D2F780FF07C0BC2EB801E9
:102F50008C2F0E944A0F019719F4219758F7B12C32
:102F60008B2DDF91CF911F910F91FF90EF90DF900C
:102F7000CF90BF900895CF93DF93EC010E947A1712
:102F8000BE010E944A0FDF91CF910895292F220F91
:102F9000920F990F890F682F669566956695982F01
:102FA000977085E0689FB001112440E050E080E018
:102FB000FA01E60FF71FE05BFD4F208130E0092E9C
:102FC00002C0369527950A94E2F721703327042E24
:102FD00001C0220F0A94EAF7822B4F5F5F4F453002
:102FE000510531F70895292F220F920F990F890F5C
:102FF000A82FA695A695A695877051E001C0550FFC
:103000008A95EAF785E0A89FD001112420E030E0FE
:1030100070E0F901EA0FFB1FE05BFD4F4081CB013F
:10302000022E02C0969587950A94E2F7817099273F
:10303000819584278523842780832F5F3F4F253008
:10304000310539F70895CF92DF92EF92FF920F93F7
:103050001F936B017C01AC01662777274115510551
:103060006105710511F080E103C0B701A60180E0A0
:10307000052F162F272F332701151105210531059F
:1030800019F0885FB901A8018A019B01F4E0369527
:10309000279517950795FA95D1F701151105210583
:1030A000310519F08C5FB901A8018A019B01E2E0AA
:1030B0003695279517950795EA95D1F701151105CE
:1030C0002105310519F08E5FB901A8017695679544
:1030D00057954795452B462B472B09F08F5F569800
:1030E0005E9825982D9826982E9827982F98482FE7
:1030F00050E0FA013197E730F105F0F4E057FF4F67
:103100000C94022B259A2D9A35C0269A2E9A40C0EF
:10311000279A2F9A4BC0259A2D9A269A2E9A54C0F8
:10312000259A2D9A279A2F9A5DC0259A2D9A269A2C
:103130002E9A279A2F9A66C0823051F128F488235C
:1031400059F08130B9F05EC0843009F43DC070F1AF
:10315000853009F447C056C080914F0281117AC072
:103160000E94D11281E00E94CE1220E04FEF6FEF5B
:103170008FE445C080914F0281116CC00E94D11232
:1031800081E00E94CE1220E04FEF6FEF80E037C069
:1031900080914F0281115EC00E94D11281E00E9495
:1031A000CE1220E04FEF6FEF8DE829C080914F02E3
:1031B000811150C00E94D11281E00E94CE1220E005
:1031C0004CEF6DE58EEC1BC080914F02811142C027
:1031D0000E94D11281E00E94CE1220E04FEF6FEFEB
:1031E0008AE10DC080914F02811134C00E94D1123A
:1031F00081E00E94CE1220E043ED69EA8AED0E9450
:10320000A80E28C080914F02811124C088E090E070
:103210000E949A2A60930F03709310038093110306
:1032200090931203862F60FF13C0816080930F0379
:1032300086950E94D91280910F0386950E94D9121B
:1032400021E0409112036091110380911003D7CFC8
:103250000E94C60DC0928702D0928802E092890235
:10326000F0928A021F910F91FF90EF90DF90CF9024
:103270000C9405280F931F9341E050E060E070E04C
:1032800004C0440F551F661F771F8A95D2F74095DB
:103290005095609570958091870290918802A091D9
:1032A0008902B0918A028A019B01082319232A23EB
:1032B0003B23C901B8011F910F910C942318209151
:1032C0008B028095822380938B02982F977079F4DC
:1032D00030E0482F082E000C550B2417350739F025
:1032E0008595859585950E943A1910928B020895CF
:1032F0000F931F9341E050E060E070E004C0440F82
:10330000551F661F771F8A95D2F78091870290918B
:103310008802A0918902B0918A028A019B01082B40
:10332000192B2A2B3B2BC901B8011F910F910C942B
:10333000231860938F027093900280939102909370
:1033400092020C94052880914E0290911D028917DB
:1033500019F08F5F8770FBCF0895CF93DF93EC0157
:1033600080EEFE01099581EEFE01DF91CF91099477
:10337000CF92DF92FF920F931F93CF93DF931F9211
:10338000CDB7DEB7F82E8B0199830E94631E998119
:1033900081111CC0CF2CD92E01151105B1F08091DF
:1033A000E80085FD0AC08091E8008E778093E800F0
:1033B0000E94631E882381F309C0F60181916F0189
:1033C0008093F10001501109E7CF80E00F90DF9169
:1033D000CF911F910F91FF90DF90CF9008951F9391
:1033E000CF93DF93CDB7DEB7AA970FB6F894DEBFC1
:1033F0000FBECDBFE0ECF2E088E08E0F9091F100BF
:1034000091938E13FBCF8091C102833009F460C089
:1034100030F4813071F0823009F49CC0B3C08A303E
:1034200009F488C08B3009F46BC0893009F0AAC058
:1034300020C08091C002813A09F0A4C08091E800C8
:10344000877F8093E8008091C4029091C502892B08
:1034500021F460E28CE992E003C060E080E090E05B
:1034600070E00E94E91E8091E8008B778093E8006D
:1034700089C08091C002813209F084C08091C40269
:103480009091C502029708F07DC08091E800877F87
:103490008093E8008091E80082FD05C08091BE0223
:1034A0008111F8CF6FC02091F3008091F20090E07D
:1034B000922B029729F48091F1008B7F813021F4C7
:1034C0008091F10080939B028091E8008B7756C039
:1034D0008091C002813A09F055C08091C402909158
:1034E000C502892B09F04EC08091E800877F809348
:1034F000E8008091E80080FFFCCF8091110139C085
:103500008091C0028132F1F58091C4029091C50290
:10351000892BC1F58091E800877F8093E8000E94A5
:10352000951E8091C20280931101109299020E940F
:10353000202828C08091C002813221F58091E800C6
:10354000877F8093E8000E94951E8091C30280933C
:103550009A0218C08091C002813AA1F48091E800DB
:10356000877F8093E8008091E80080FFFCCF809106
:103570009A028093F1008091E8008E778093E800B2
:103580000E94951E8091E80083FFD6C18091C00201
:103590009091C102492F50E04A30510508F0CCC14A
:1035A000FA01E956FF4F0C94022B803821F0823843
:1035B00009F0C2C108C08091BC029091BD0299235C
:1035C00089F082600FC08091C4028F70873008F04C
:1035D000B3C18093E9008091EB0085FB882780F9D7
:1035E0001092E9009091E800977F9093E800809313
:1035F000F1001092F10074C1282F2D7F09F09CC1B9
:10360000882319F0823061F097C18091C202813025
:1036100009F092C1933009F080E08093BD022EC082
:103620008091C20281112AC08091C4028F702FEF55
:10363000280F263008F080C18093E9002091EB002C
:1036400020FF1CC0933021F48091EB00806214C0F5
:103650009091EB0090619093EB0021E030E0A901A4
:1036600002C0440F551F8A95E2F74093EA0010927A
:10367000EA008091EB0088608093EB001092E900F3
:103680008091E800877F2FC1811156C11091C2023D
:103690001F778091E3008078812B8093E3008091F5
:1036A000E800877F8093E8000E94951E8091E800E3
:1036B00080FFFCCF8091E30080688093E3001111CC
:1036C00002C082E001C083E08093BE0235C1805811
:1036D000823008F031C18091C2029091C3028C3DCA
:1036E00053E0950779F583E08A838AE289834FB7AF
:1036F000F894DE01139620E03EE051E2E32FF0E083
:1037000050935700E49120FF03C0E295EF703F5FB4
:10371000EF708E2F90E0EA3010F0C79601C0C0968F
:103720008D939D932F5F243149F74FBF8091E8001F
:10373000877F8093E8006AE270E0CE0101960E94E4
:10374000E91EBDC04091C4025091C502292F332704
:1037500023303105B9F06CF42130310509F4FBC098
:103760002230310509F0E8C08BE390E0E3E5F7E0B3
:1037700054C02132310509F433C02232310509F435
:103780003CC0DAC0992781309105D1F05CF4892BD7
:1037900009F0D2C0E6EDF7E0E4918E2F90E0E6ED7F
:1037A000F7E038C08230910599F0039709F0C4C062
:1037B000E0EAF7E0E4918E2F90E0E0EAF7E02AC03B
:1037C000EEEBF7E0E4918E2F90E0EEEBF7E022C015
:1037D000E6EAF7E0E4918E2F90E0E6EAF7E01AC01F
:1037E0004115510509F4BCC04130510509F0A4C090
:1037F00089E090E0EEE7F7E010C04115510509F4CB
:10380000B4C04130510509F097C080EC90E0E3E589
:10381000F6E003C0009709F48FC02091E800277FED
:103820002093E8002091C6023091C702281739077B
:1038300008F4C90140E0009789F12091BE022223DB
:1038400009F43DC02530D9F12091E80023FD37C0AF
:103850002091E80022FD2FC02091E80020FFEBCF4F
:103860004091F3002091F20030E0342B009759F0A2
:103870002830310540F444914093F100319601978E
:103880002F5F3F4FF3CF41E02830310509F040E092
:103890002091E8002E772093E800CDCF4111CDCFC5
:1038A0000AC08091BE02882351F0853041F080919A
:1038B000E80083FD04C08091E80082FFF2CF809190
:1038C000E8008B778093E80037C08038A9F58091B5
:1038D000E800877F8093E8008091BF028093F10029
:1038E0008091E8008E778093E8000E94951E24C0A6
:1038F000811122C01091C2021230F0F48091E800D0
:10390000877F8093E8001093BF020E94951E1111DB
:1039100006C08091E30087FD02C081E001C084E021
:103920008093BE0242E061EC81E00E94B41E42E25C
:1039300061EC82E00E94B41E8091E80083FF1AC00F
:103940008091E800877F8093E8008091EB0080629F
:103950008093EB000FC082E190E0EEE8F7E05DCFEE
:1039600089E090E0E5E6F7E058CF80E490E0E3E11D
:10397000F7E053CFAA960FB6F894DEBF0FBECDBFC7
:10398000DF91CF911F9108951F920F920FB60F9262
:1039900011242F933F934F935F936F937F938F9354
:1039A0009F93AF93BF93CF93DF93EF93FF93C09118
:1039B000E900CF708091EC00D82FD17080FDD0E865
:1039C0001092E9008091F000877F8093F000789456
:1039D0000E94EF191092E9008091F00088608093B6
:1039E000F000CD2BCF70C093E900FF91EF91DF91F4
:1039F000CF91BF91AF919F918F917F916F915F9187
:103A00004F913F912F910F900FBE0F901F901895DF
:103A1000E8EDF0E080818E7F80831092E2001092CA
:103A2000DA001092E100A0EEB0E08C9181608C93FE
:103A300080818F77808319BCA7EDB0E08C918E7F59
:103A40008C9380818F7E8083109298020895CF920C
:103A5000DF92EF92FF920F931F93CF93DF93C8ED06
:103A6000D0E088818F7E8883E7EDF0E080818160FF
:103A7000808384E082BF81E08093980288818E7F7A
:103A8000888302EE10E0F80110821092DA0081EED5
:103A9000C82ED12CF601108288818F778883888187
:103AA0008068888388818F7D888319BC1092BE02CC
:103AB0001092BF021092BD021092BC0290EEE92E4D
:103AC000F12CF70180818B7F8083888181608883DE
:103AD00042E060E080E00E94B41EF60180818E7FAB
:103AE0008083F80180818160808380818860808309
:103AF000F70180818E7F8083888180618883DF9158
:103B0000CF911F910F91FF90EF90DF90CF9008958C
:103B10001F920F920FB60F9211242F933F934F9342
:103B20005F936F937F938F939F93AF93BF93EF9325
:103B3000FF938091E10082FF09C08091E20082FF43
:103B400005C08091E1008B7F8093E1008091DA00D5
:103B500080FF2AC08091D80080FF26C08091DA00C3
:103B60008E7F8093DA008091D90080FF18C080E1B9
:103B700089BD82E189BD09B400FEFDCF81E080935B
:103B8000BE028091980281110FC00E94081D0E9400
:103B9000271D8091E20084608093E20005C019BC7B
:103BA0001092BE02109298028091E10080FF17C02F
:103BB0008091E20080FF13C08091E2008E7F8093AD
:103BC000E2008091E20080618093E2008091D80061
:103BD00080628093D80019BC85E08093BE028091FA
:103BE000E10084FF34C08091E20084FF30C080E1B6
:103BF00089BD82E189BD09B400FEFDCF8091D80066
:103C00008F7D8093D8008091E1008F7E8093E100CA
:103C10008091E2008F7E8093E2008091E2008160DB
:103C20008093E2008091BF02882311F084E007C0F6
:103C30008091E30087FD02C081E001C083E08093B2
:103C4000BE02109299020E9420280E94262580918F
:103C5000E10083FF27C08091E20083FF23C08091B1
:103C6000E100877F8093E10082E08093BE021092A2
:103C7000BF028091E1008E7F8093E1008091E2009D
:103C80008E7F8093E2008091E20080618093E20069
:103C900042E060E080E00E94B41E8091F000886005
:103CA0008093F000FF91EF91BF91AF919F918F9121
:103CB0007F916F915F914F913F912F910F900FBE28
:103CC0000F901F9018952091E4003091E50095E643
:103CD0004091EC00842F817040FF22C08091E80069
:103CE00080FD1CC08091BE02882391F0853091F048
:103CF0008091EB0085FD10C04091E4005091E500FB
:103D00004217530729F39A01915011F784E008955F
:103D100082E0089583E0089581E0089580E00895A9
:103D20004091E80042FFDECF08958091C00287FFF6
:103D300011C08091E80082FD05C08091BE02811112
:103D4000F8CF11C08091E8008B770BC08091BE0244
:103D5000882349F08091E80080FFF8CF8091E80047
:103D60008E778093E8000895982F973058F59093B8
:103D7000E900981739F07091EC002091ED00509116
:103D8000F00003C0242F762F50E021FF19C030919E
:103D9000EB003E7F3093EB003091ED003D7F3093A0
:103DA000ED003091EB0031603093EB007093EC004C
:103DB0002093ED005093F0002091EE0027FF07C004
:103DC0009F5FD3CF8F708093E90081E0089580E0FA
:103DD00008952091C6023091C7022617370748F090
:103DE0006115710539F42091E8002E772093E800E1
:103DF00001C0B90140E061157105A9F12091BE0231
:103E0000222309F443C0253009F442C02091E80080
:103E100023FD40C02091E80022FD32C02091E8003F
:103E200020FFE9CF4091F3002091F20030E0342BE5
:103E3000FC01CF016115710559F02830310540F4BE
:103E400081918093F100615071092F5F3F4FF1CF55
:103E500041E02830310509F040E02091E8002E775C
:103E60002093E800C8CF4111C9CF0AC08091BE029B
:103E7000882361F0853061F08091E80083FD0AC0FD
:103E80008091E80082FFF2CF80E0089582E00895FB
:103E900083E0089581E0089580911603811107C0A1
:103EA0008091BE02843011F081E0089582E008958F
:103EB000CF93DF93CDB7DEB72C970FB6F894DEBF64
:103EC0000FBECDBF84B7877F84BF0FB6F894A89587
:103ED00080916000886180936000109260000FBE46
:103EE00080E8809361001092610085B7806885BF8B
:103EF00085B7806885BF0E94081D0E94271D80919C
:103F0000E20084608093E20078948091BE0288236E
:103F1000A1F01091E9001F709091EC00892F817041
:103F200090FD80E8182B1092E9008091E80083FD55
:103F30000E94EF191F701093E90082E084BD93E0A6
:103F400095BD9AEF97BD80936E000E94A71190E0F7
:103F500090931301809312010E9476120E948512A1
:103F6000AEECB2E0E2EEF2E05EE0D52EDE0E1192B3
:103F70001D92DE12FCCF8EE090E00E94082B809311
:103F8000C8029093C902FC010E962BEF2193E8170B
:103F9000F907E1F70E94D116811102C00E94DC16D8
:103FA0008CE090E00E94922A90E0A0E0B0E0809344
:103FB000CA029093CB02A093CC02B093CD0289EABF
:103FC0008093800089E08093810024982C983F980A
:103FD0008AB18F7C8AB96E98479A8BB180638BB90E
:103FE000769A0E941E120E94D116811102C00E9470
:103FF000DC1682E090E00E94922A8093FA0284E02C
:1040000090E00E94922A90E09093DD028093DC027F
:1040100083E090E00E94922A682F70E080E090E0B8
:104020000E9499198091DE02811137C08091FA02B5
:1040300081608093FA020E94D116811104C00E940F
:10404000DC160E94DE0D88E090E00E949A2A6093C0
:104050000F037093100380931103909312036E7FEC
:1040600071F40E94DE0D88E090E00E949A2A60932D
:104070000F037093100380931103909312030E9417
:10408000970D1092150380910F0380FF03C0869552
:104090000E94CE1281E08093DE0284E191E0909351
:1040A000E0028093DF024AEDE42E47E0F42E809197
:1040B000BE02853009F047C08091BE02843021F1F4
:1040C0001092E10220E488E190E00FB6F894A89500
:1040D000809360000FBE2093600083B7817F84606F
:1040E00083BF83B7816083BF7894889583B78E7FC1
:1040F00083BF0FB6F894A895809160008861809383
:104100006000109260000FBE8091BD02882309F408
:10411000CECF0E94A71190E09093130180931201DB
:104120000E9476120E948512E2EEF2E01192DE12F7
:10413000FDCF0E94EF12E2EEF2E08191811184C185
:10414000DE12FBCFB4CF0E94EF12EBEFF2E0A2EE53
:10415000B2E000E010E0302F2D9141914227B9F1FB
:1041600080E090E050E0682F5A01082E02C0B5941C
:10417000A7940A94E2F7A0FE26C089833A8381E0DF
:1041800090E05C0102C0AA0CBB1C6A95E2F7822F8A
:1041900090E08A219B2121E0892B09F420E02B83E8
:1041A0000E9423168160782F9D838C8349815A81D8
:1041B0006B818D810E942424F801E550FD4F8081A0
:1041C000A826A0821AC001968630910561F60F5F7D
:1041D0001F4F0E30110509F0BECF8FEF8E838F83F6
:1041E00018860E9423168160782F9A8789874E81CE
:1041F0005F8168858A850E9424248091F7029091CE
:10420000F8020E94F9159C019091F602992321F081
:104210002431310508F478C08091F2021091F30244
:1042200081110BC0111126C12091F402211122C16C
:104230002091F50221111EC167C09F3F19F09F5FB9
:104240009093F602181624F40E9448158093F20207
:104250008091F20287FF05C00E94481581958093E6
:10426000F202111624F40E9448158093F302809103
:10427000F30287FF05C00E94481581958093F302E1
:104280003091F2023323E1F02091F3022223C1F0B6
:1042900045EB3403C0011124892F990F990B009726
:1042A00009F481E08093F20235EB2303C00111246D
:1042B000892F990F990B009709F481E08093F302FD
:1042C0008091F402181624F40E9426158093F402BB
:1042D0008091F40287FF05C00E9426158195809386
:1042E000F4028091F502181624F40E94261580939A
:1042F000F5028091F50287FF05C00E942615819581
:104300008093F5020E942F161091F9020E94262533
:10431000181721F00E9426258093F9028091150339
:10432000882309F4C4CE80911403E0910F03E6952D
:10433000E81BE0930B03823049F4F0E0E851F84FBA
:10434000E4910E2F10E020E134E248C0863049F4B9
:10435000F0E0EB51F84FE4910E2F10E020E034E252
:104360003DC0893051F4E695F0E0EE51F84FE4910C
:104370000E2F10E024E933E231C08F3051F4E6957E
:10438000F0E0E152F84FE4910E2F10E024E233E226
:1043900025C0853149F4F0E0E452F84FE4910E2F46
:1043A00010E028EC32E21AC0883179F0833231F41F
:1043B000F701059114912EEB33E210C0843251F4D1
:1043C00004EF11E02BE532E209C008EE13E023E927
:1043D00032E204C000ED17E02EE332E280910C03DC
:1043E0008823A9F010920C032B873C870E94231688
:1043F000A80140955095840F951F90930A038093D0
:10440000090310920E0310920D033C852B858091B9
:10441000090390910A032B873C870E94F9152B858D
:104420003C858017910708F442CEE0910903F09192
:104430000A030E0F1F1F10930A030093090389E05C
:1044400093E0F901099533CE80E189BD82E189BD10
:1044500009B400FEFDCF8091D8008F7D8093D800F5
:104460008091E00082608093E0008091E00081FD17
:10447000FCCF1DCE9F3F09F0E2CEEACE08958823FF
:1044800019F05198599A02C0519A59985098589ACF
:1044900095E09A95F1F70000509A589895E09A9512
:1044A000F1F70000882311F0519A599885E08A9518
:1044B000F1F700000895EF92FF920F931F93CF93AF
:1044C000DF937C01CAE1D3E000E010E0F7018481D2
:1044D000073011051CF4882339F002C0811104C093
:1044E0009E014091120302C09E0140E060911103C1
:1044F000809110030E94ED0D0F5F1F4F24960F3027
:10450000110521F70E94F90CF701248130E02F5F9B
:104510003F4F217033272483DF91CF911F910F915B
:10452000FF90EF900895EF92FF920F931F93CF9318
:10453000DF93EC012C813D812F5F3F4F21703327AA
:104540003D832C838AE1E82E83E0F82E10E005E518
:10455000812F86954C815D81480F511D842F81707C
:1045600097014091120360911103809F802D1124C7
:104570000E94ED0D1F5F84E0E80EF11C1F3041F733
:10458000DF91CF911F910F91FF90EF900C94F90C58
:104590000F931F93CF93DF9380E090E0FC01E65EE2
:1045A000FC4F11821082128204968C339105B1F770
:1045B000C0E0D0E00FE010E0CE01B8010E94EE2A8A
:1045C000FC0180911803082E000C990BEE0FFF1FC1
:1045D000EE0FFF1FC817D907A4F080911F01082E06
:1045E000000C990B8C179D0764F09F01265E3C4FD1
:1045F0004091120360911103809110030E94ED0D10
:1046000005C0E65EFC4F1182108212822196CF30E7
:10461000D10591F60E94F90C80911E01909118032A
:10462000980F9093180320911F01280F20931F01CA
:10463000121614F49E301CF0819580931E01DF91B8
:10464000CF911F910F910895AF92BF92CF92DF92B9
:10465000EF92FF920F931F93CF93DF93FC01828120
:1046600080FF03C0BB24BA9402C0BB24B3942AE1E8
:10467000E22E23E0F22E0CE113E0C0E0D0E0F801DE
:1046800031971082F7011082F801108294E0C92E50
:10469000D12CA12C809117038A0D87FD815F082EF4
:1046A000000C990BC817D90791F4809112038C9DC7
:1046B000A0018D9D500D1124559547955595479511
:1046C000970160911103809110030E94ED0DAB0CD6
:1046D000F1E0CF1AD108F1F6219684E0E80EF11C42
:1046E0000C5F1F4FCF30D10551F60E94F90C80911D
:1046F000170391E0B91206C0811102C08EE007C015
:10470000815005C090E00196BE010E94EE2A809380
:104710001703DF91CF911F910F91FF90EF90DF90E2
:10472000CF90BF90AF900895EF92FF921F93CF93D9
:10473000DF93EC018AE1E82E83E0F82E10E08C8113
:1047400097014091120360911103810F0E94ED0DBA
:104750001F5E84E0E80EF11C1F3F89F70E94F90CF0
:104760008A819C8180FF02C09F5F01C091509C8321
:10477000DF91CF911F91FF90EF9008950F931F93BA
:10478000CF93DF9300D000D0CDB7DEB78C018091FE
:10479000190381110AC09E012F5F3F4F4FEF6FEF4A
:1047A0000E94ED0D8A8180931903F8018481813084
:1047B00051F028F0823061F4409119030AC08091D1
:1047C000190340E007C06091190340E080E003C096
:1047D00040E080E060E00E947B0DF801248130E041
:1047E000C901019663E070E00E94EE2A84830F9075
:1047F0000F900F900F90DF91CF911F910F9108951F
:10480000CF93DF93EC01EFE0F3E0438162818C8191
:104810000E948D0E8C818F5F8C83DF91CF910895E4
:10482000CF93DF93EC01EC81F0E0E451F84F449139
:10483000EFE0F3E0628181810E948D0E8C818F5FB9
:104840008C83DF91CF910895EF92FF920F931F9386
:10485000CF93DF93CDB7DEB767970FB6F894DEBF7F
:104860000FBECDBF4B8B5C8B6D8B7E8B8F8B0E8980
:104870001F8901151105C1F15F3F11F44F3FA1F1EF
:10488000E42EF12CA1E0B0E0042E01C0AA0F0A949E
:10489000EAF7852F90E0662319F020916B0306C09C
:1048A0009C01245A3C4FF90120812A232223A9F09C
:1048B00046E0489F9001499F300D1124F701E20F17
:1048C000F31FEE0FFF1FEB5BFE4F40815181FC0198
:1048D000E45AFC4F9081A92B06C0FC01E45AFC4F1E
:1048E000A0958081A823A08386E0FE013D96DF018C
:1048F000982F1D929A95E9F74D875E876F87198BE0
:10490000088BDE01179601900D928A95E1F7CE0192
:1049100007960E943B26811137C086E0FE0137963C
:10492000DE01119601900D928A95E1F7FF81E885ED
:104930006A857B856115710539F1EF3F11F4FF3F01
:1049400019F120911D0230E0C90101968770992765
:1049500040914E0250E08417950779F1F983EA837C
:104960007D836C8396E0929FD001939FB00D1124BC
:10497000A25EBD4FFE01319601900D929A95E1F72E
:1049800080931D020E94A31916E080914E0290911F
:104990001D02891711F1189FC0011124825E9D4FDD
:1049A0000E943B268823C9F080914E0290E0019638
:1049B0008770992780934E02E8CF109299020E9447
:1049C000202810921D0210924E02E7E1F2E086E0EC
:1049D000DF011D928A95E9F7D7CF67960FB6F89455
:1049E000DEBF0FBECDBFDF91CF911F910F91FF9022
:1049F000EF90089520915A0330915B03821793073B
:104A000071F090935B0380935A03E091DF02F09181
:104A1000E002309721F00084F185E02D099408959B
:104A200020915803309159038217930771F09093A6
:104A3000590380935803E091DF02F091E002309730
:104A400021F00680F781E02D09940895E091DF02BE
:104A5000F091E002309721F00190F081E02D09946F
:104A600080E00895CF93DF93D82FC8E08D2F807812
:104A70000E943F22DD0FC150C9F780E00E943F2213
:104A800085E08A95F1F7000085E08A95F1F700004E
:104A900080E0DF91CF9108950F931F93CF93DF9321
:104AA000C62FD42F022FFC0182818823C9F0609386
:104AB000EF010E942316909357038093560380E2E0
:104AC0008C0F883008F050C0C77081E001C0880F9B
:104AD000CA95EAF7DF91CF911F910F910C943E2870
:104AE0001091EF01161330C0809156039091570337
:104AF0000E94F915883C910538F5C0E2CD0F1D17CD
:104B0000B9F080E2810F883040F4177081E001C075
:104B1000880F1A95EAF70E943328C83048F481E0DC
:104B20009D2F977001C0880F9A95EAF70E943E2842
:104B3000802F0E94AF28C830B8F4D77081E001C040
:104B4000880FDA95EAF70AC080E28C0F883060F4AB
:104B5000C77081E001C0880FCA95EAF7DF91CF9155
:104B60001F910F910C943328DF91CF911F910F91DA
:104B7000089580911C0282958F7009F054C0809135
:104B80001902882309F44FC080914E02A0911D02A2
:104B9000609117027091180240911A0250911B0205
:104BA000B6E08A1709F43FC090E041155105C1F104
:104BB0007F3F11F46F3FA1F1B89FF001B99FF00D55
:104BC0001124E25EFD4F218172132AC020816213FD
:104BD00027C02281211124C0238134812417350765
:104BE00010F421503109241B350B283C3105C0F449
:104BF00020911C022F70206120931C0226E0289F28
:104C0000F001299FF00D1124ED5DFD4F80818F7023
:104C10008061808387E192E00E9495040C94A3193F
:104C200001968770BECF08950E94BB17292F2F7061
:104C300092959F70E92FF0E03297EE30F105B8F4CD
:104C4000EF55FF4F0C94022B803F99F018F4803EF3
:104C500070F40FC0843F59F40CC0803E50F0813F87
:104C600031F407C0822F869586958695089580E059
:104C7000089581E00895BF92CF92DF92EF92FF9264
:104C80000F931F93CF93DF93CDB7DEB761970FB626
:104C9000F894DEBF0FBECDBF8C0185E0F801DE01C8
:104CA0001D9601900D928A95E1F7D8013C911196DD
:104CB0002C9111971296EC9012971396CD90DC9050
:104CC0001497509117026091180280911A029091E6
:104CD0001B02009709F44FC16F3F19F45F3F09F4BD
:104CE0004AC1B0901902BB2009F4ECC040911C02EB
:104CF000C816D90628F0F601E81BF90BCF0104C04D
:104D0000809590958C0D9D1DFF24F394883C910512
:104D100048F0F12C407F09F09FC087E192E00E94AB
:104D2000950421C1842F807F09F044C0621312C012
:104D3000531310C0E1100EC04F70406140931C022D
:104D400087E192E00E94950480911C02D80115969B
:104D50008C932EC0CD2819F12F3F11F43F3FF9F06D
:104D6000FE2CE1101CC080914E0240911D0256E0C5
:104D7000841709F458C090E0589FF001599FF00D36
:104D80001124E25EFD4F6181261306C06081361357
:104D900003C06281611103C001968770E9CFFE2CC8
:104DA000EE2009F421C180911C02816080931C02D5
:104DB000F12C1AC162130AC0531308C0E11006C0D7
:104DC00080911C02D80115968C93B0C03D872E8728
:104DD0008D859E850E9414268823D1F1EE20C1F195
:104DE00020911C02822F82958F7090E0029774F0C0
:104DF000809117029091180298878F831986DB861D
:104E0000CA862C87CE0107960E94950486E0F80199
:104E1000A7E1B2E001900D928A95E1F70E94B925D1
:104E2000FF24F394E1C03D872E878D859E850E94E7
:104E3000BB17292F22952F7030E0223031050CF05E
:104E4000C7C09F7009F0C1C0805E883008F4CCC034
:104E5000C8010E949504E4CF621314C0531312C01A
:104E6000E11010C080911C02F8018583C8010E94E6
:104E7000950486E0E7E1F2E0DF011D928A95E9F70B
:104E8000FB2CB2C03D872E878D859E850E941426FF
:104E90008823F1F2EE20E1F220911C02822F82950C
:104EA0008F7090E002970CF4B1CF8091170290912F
:104EB00018029A8389831B82DD82CC822E83CE01E5
:104EC0000196A2CFC816D90638F0C81AD90AB8EC8C
:104ED000CB16D10450F007C0809590958C0D9D1D88
:104EE000883C910510F0F12C3EC0FE2CEE2009F418
:104EF000AFCF621327C0531325C020911C0220FDA1
:104F000018C0822F82958F70482F50E041155105AF
:104F100081F0F80125834F30510541F08F5F982FC4
:104F20009295907F822F8F70892B8583C8010E9474
:104F3000950486E0F801A7E1B2E001900D928A9510
:104F4000E1F752C03D872E878D859E850E941426ED
:104F500081115CCF80911C02816080931C02C8018A
:104F60000E94950441C0E7E1F2E086E0DF011D9276
:104F70008A95E9F739C0EE2009F46ACF3D872E877C
:104F80008D859E850E941426F82E882309F460CF13
:104F900086E0F801A7E1B2E001900D928A95E1F771
:104FA00080911702909118020E94BB1792959F70F2
:104FB000963041F480916B0391E0892780936B03D5
:104FC00090936A030E94B9250FC081113DCF0CC098
:104FD000243031050CF03CCF9F7009F435CFF80137
:104FE0009581907F09F030CF8F2D61960FB6F894A0
:104FF000DEBF0FBECDBFDF91CF911F910F91FF900C
:10500000EF90DF90CF90BF90089510928D02109294
:105010008C020E943417E0EFF2E086E0DF011D927F
:105020008A95E9F71092F602109297020E942F16C5
:1050300080E090E00E94102580E090E00C94FA243B
:1050400080911101882331F08091DC0287FF02C03A
:105050008EE101C086E0E9EFF1E0DF011D928A9563
:10506000E9F70C940528882341F0809590919902E6
:105070008923809399020C9434170895882339F07A
:1050800090919902892B809399020C94341708957A
:10509000882309F463C0823869F40E94262581FFC1
:1050A0005DC069E387EF91E00E9499160E94341772
:1050B00069E30EC0833891F40E94262580FF4EC01C
:1050C00063E587EF91E00E9499160E94341763E52B
:1050D00087EF91E00E946E160C943417843869F4BF
:1050E0000E94262582FF3AC067E487EF91E00E9484
:1050F00099160E94341767E4EBCF9CEF980F913A12
:1051000010F4682FE5CF90E2980F983088F48770FC
:1051100021E030E0A90102C0440F551F8A95E2F753
:10512000CA01809590919902892380939902D4CFE6
:105130009BE5980F933020F480E090E00C941025CC
:1051400098E5980F973120F480E090E00C94FA24D1
:10515000803F20F00E94A1140C942F160895CF9345
:10516000C82F0E94C228C93349F42FEF83EC99E07D
:10517000215080409040E1F700C000008C2FCF917B
:105180000C944828882309F416C18238B1F40E948F
:10519000262581FD10C169E387EF91E00E949916F1
:1051A0000E9434172FEF41EE54E021504040504010
:1051B000E1F700C0000069E317C08338D9F40E940A
:1051C000262580FDF8C063E587EF91E00E949916DF
:1051D0000E9434178FEF91EE24E0815090402040E0
:1051E000E1F700C0000063E587EF91E00E946E16D2
:1051F0000C9434178438B1F40E94262582FDDBC05C
:1052000067E487EF91E00E9499160E9434174FEFF0
:1052100051EE84E0415050408040E1F700C0000072
:1052200067E4E2CF9CEF980F913A30F4682F87EF54
:1052300091E00E949916DCCF90E2980F983080F4AC
:10524000877021E030E0A90102C0440F551F8A9504
:10525000E2F7CA0190919902892B80939902C8CFF5
:105260009BE5980F933070F4853A29F0863A31F037
:1052700083E890E005C081E890E002C082E890E019
:105280000C94102598E5980F973108F08EC0883A55
:1052900009F445C0893A09F445C08A3A09F445C081
:1052A0008B3A09F445C08C3A09F445C08B3B09F4AC
:1052B00045C08C3B09F445C08D3A09F445C0803B9C
:1052C00009F445C08E3A09F445C08F3A09F445C047
:1052D000813B09F445C0823B09F445C0833B09F496
:1052E00045C0843B09F445C0853B09F445C0863B75
:1052F00009F445C0873B09F445C0883B09F445C023
:10530000893B09F445C08D3B09F445C08E3B09F447
:1053100045C08A3B09F445C080E090E044C082EE7D
:1053200090E041C089EE90E03EC08AEE90E03BC044
:1053300085EB90E038C086EB90E035C083EB90E0E1
:1053400032C084EB90E02FC087EB90E02CC08CEC57
:1053500090E029C08DEC90E026C083E891E023C066
:105360008AE891E020C082E991E01DC084E991E0E3
:105370001AC081E292E017C083E292E014C084E296
:1053800092E011C085E292E00EC086E292E00BC08E
:1053900087E292E008C08FE690E005C080E790E0E9
:1053A00002C08AE292E00C94FA24803F20F00E942E
:1053B0006B150C942F1608951092B9008CE0809311
:1053C000B8000895EF92FF920F931F93CF93DF934E
:1053D000182FEB011092BC0084EA8093BC000E945D
:1053E00023167C019091BC0097FD0EC0CF3F8FEF3C
:1053F000D807C1F30E9423168E199F098C179D07A9
:1054000088F38EEF9FEF2EC09091B900987F98306F
:1054100041F09091B900987F903119F08FEF9FEF94
:1054200021C01093BB0084E88093BC000E94231627
:105430008C019091BC0097FD0CC0CF3F8FEFD80737
:10544000C1F30E942316801B910B8C179D0788F3D4
:10545000D8CF8091B900887F883111F08034F1F67F
:1054600080E090E0DF91CF911F910F91FF90EF903E
:1054700008950F931F93CF93DF93EB018093BB00AD
:1054800084E88093BC000E9423168C019091BC009C
:1054900097FD0EC0CF3F8FEFD807C1F30E942316B0
:1054A000801B910B8C179D0788F38EEF9FEF0CC02C
:1054B0002091B900287F81E090E0283211F480E04B
:1054C00090E0919581959109DF91CF911F910F9176
:1054D00008950F931F93CF93DF93EC0184E880939B
:1054E000BC000E9423168C019091BC0097FD0EC059
:1054F000CF3F8FEFD807C1F30E942316801B910B7B
:105500008C179D0788F38EEF9FEF03C08091BB003F
:1055100090E0DF91CF911F910F91089584E98093DE
:10552000BC000895F999FECF92BD81BDF89A9927E4
:1055300080B50895A6E1B0E044E050E00C94CC2A98
:10554000A8E1B0E042E050E00C94CC2A262FF99973
:10555000FECF92BD81BDF89A019700B4021639F0D2
:105560001FBA20BD0FB6F894FA9AF99A0FBE0895A3
:105570000396272F0E94A72A0E94A62A252F0E9461
:10558000A72A242F0C94A72A0196272F0E94A72A26
:105590000C94A62ADC01CB01FC01F999FECF06C0D0
:1055A000F2BDE1BDF89A319600B40D9241505040E1
:1055B000B8F70895AA1BBB1B51E107C0AA1FBB1F68
:1055C000A617B70710F0A61BB70B881F991F5A958F
:1055D000A9F780959095BC01CD01089597FB072E02
:1055E00016F4009407D077FD09D00E94DA2A07FC50
:1055F00005D03EF4909581959F4F089570956195E3
:105600007F4F0895EE0FFF1F0590F491E02D099450
:10561000CF93DF938230910510F482E090E0E09127
:105620006E03F0916F0320E030E0C0E0D0E03097EF
:1056300011F14081518148175907C0F048175907A7
:1056400061F482819381209719F09B838A832BC018
:1056500090936F0380936E0326C02115310519F0D6
:105660004217530718F49A01BE01DF01EF010280CF
:10567000F381E02DDCCF2115310509F1281B390B11
:105680002430310590F412968D919C9113976115F9
:10569000710521F0FB019383828304C090936F0313
:1056A00080936E03FD01329644C0FD01E20FF31FAB
:1056B00081939193225031092D933C933AC02091CC
:1056C0006C0330916D03232B41F420910201309142
:1056D000030130936D0320936C03209100013091FE
:1056E00001012115310541F42DB73EB74091040168
:1056F00050910501241B350BE0916C03F0916D0373
:10570000E217F307A0F42E1B3F0B2817390778F098
:10571000AC014E5F5F4F2417350748F04E0F5F1FF7
:1057200050936D0340936C038193919302C0E0E02A
:10573000F0E0CF01DF91CF9108950F931F93CF93A6
:10574000DF93009709F48CC0FC0132971382128218
:1057500000916E0310916F030115110581F42081F2
:105760003181820F931F20916C0330916D032817B4
:10577000390779F5F0936D03E0936C0371C0D8019C
:1057800040E050E0AE17BF0750F412962D913C91C7
:105790001397AD012115310509F1D901F3CF9D0111
:1057A000DA013383228360817181860F971F82170C
:1057B000930769F4EC0128813981260F371F2E5F8A
:1057C0003F4F318320838A819B8193838283452B42
:1057D00029F4F0936F03E0936E0342C01396FC9399
:1057E000EE931297ED01499159919E01240F351FB7
:1057F000E217F30771F480819181840F951F02965F
:1058000011969C938E938281938113969C938E9391
:105810001297E0E0F0E0D80112968D919C911397D9
:10582000009719F0F8018C01F6CF8D919C919801A9
:105830002E5F3F4F820F931F20916C0330916D03B9
:105840002817390769F4309729F410926F031092E2
:105850006E0302C01382128210936D0300936C03D7
:10586000DF91CF911F910F910895FC01415050405D
:1058700030F001900616D1F73197CF0108958827AF
:0858800099270895F894FFCF69
:1058880000007003200001191A1B1C1D1E1F202177
:1058980022012000BB135A142F14BE13F413010263
:1058A8000001020202020606060909090909090F90
:1058B8000F0F0F0F0F15151518191919191919198F
:1058C8001919192324000D010D020D030D040D05EE
:1058D8000D000C010C020C030C040C050C000B0150
:1058E8000B020B030B040B050B000A010A020A0347
:1058F8000A040A050A00090109020903090409053D
:10590800090008010802080308040805080007013F
:105918000702070307040705070006010602060336
:10592800060406050600050105020503050405052C
:10593800050004010402040304040405040003012F
:105948000302030303040305030002010202020326
:10595800020402050200010101020103010401051C
:0E596800010000010002000300040005000021
:00000001FF
